:100000000C9434000C9451000C9451000C94510049
:100010000C9451000C9451000C9451000C9451001C
:100020000C9451000C9451000C9451000C9451000C
:100030000C9451000C9451000C9451000C945100FC
:100040000C9451000C9451000C9451000C945100EC
:100050000C9451000C9451000C9451000C945100DC
:100060000C9451000C94510011241FBECFEFD8E026
:10007000DEBFCDBF11E0A0E0B1E0EAE7FBE002C0E7
:1000800005900D92AA37B107D9F721E0AAE7B1E0B0
:1000900001C01D92A339B207E1F70E9444020C94FB
:1000A000B3050C9400001092C50087E68093C4004D
:1000B00088E18093C10086E08093C200089580911A
:1000C000C00087FFFCCF8091C60008959091C000CA
:1000D00095FFFCCF8093C6000895CF93DF93EC018A
:1000E0008991811103C0DF91CF9108950E9466002C
:1000F000F7CF0F931F93CF93DF93CDB7DEB76497FE
:100100000FB6F894DEBF0FBECDBF9F938F9381E0F3
:1001100091E09F938F938E010F5F1F4F1F930F935B
:100120000E94EA02C8010E946D000F900F900F908C
:100130000F900F900F9064960FB6F894DEBF0FBE2D
:10014000CDBFDF91CF911F910F91089584B1886247
:1001500084B924988CB581658CBD8DB58E7F8DBD9D
:1001600008958EBD0DB407FEFDCF8EB50895CF93D3
:10017000DF93EC018991811104C08EB5DF91CF919D
:1001800008950E94B100F6CF81E00E94B1008FEC8B
:1001900097E00197F1F700C0000082E00E94B100F3
:1001A000809390018FEC97E00197F1F700C0000079
:1001B00083E00E94B100809391018FEC97E001975A
:1001C000F1F700C0000084E00E94B10080938E012E
:1001D0008FEC97E00197F1F700C0000085E00E94E6
:1001E000B10080938F018FEC97E00197F1F700C089
:1001F000000086E00E94B10080938C018FEC97E0B4
:100200000197F1F700C0000080E00E94B1008093E8
:100210008D018FEC97E00197F1F700C0000080910D
:10022000910190E020919001382F30938B01209321
:100230008A0130918F0120918E01309389012093A2
:10024000880130918D0120918C013093870120939A
:1002500086010E94790084E091E00E946D00809107
:10026000900190E00E94790084E091E00E946D008E
:1002700080918A0190918B010E94790086E091E043
:100280000E946D0080918F0190E00E94790084E0CF
:1002900091E00E946D0080918E0190E00E947900B3
:1002A00084E091E00E946D00809188019091890125
:1002B0000E94790086E091E00E946D0080918D019E
:1002C00090E00E94790084E091E00E946D008091AE
:1002D0008C0190E00E94790084E091E00E946D0022
:1002E00080918601909187010C947900089587E0B0
:1002F0000E94B1008FEC97E00197F1F700C0000079
:1003000088E00E94B100809384018FEC97E0019710
:10031000F1F700C0000080E00E94B10080938501E9
:100320008FEC97E00197F1F700C000008091850104
:1003300090E020918401382F30937F0120937E013B
:100340000E94790084E091E00E946D008091840118
:1003500090E00E94790084E091E00E946D0080911D
:100360007E0190917F010C94790089E00E94B10098
:100370008FEC97E00197F1F700C000008AE00E943F
:10038000B100809382018FEC97E00197F1F700C0F4
:10039000000080E00E94B100809383018FEC97E021
:1003A0000197F1F700C000008091830190E0209157
:1003B0008201382F30937D0120937C010E947900C7
:1003C00084E091E00E946D008091820190E00E94A3
:1003D000790084E091E00E946D0080917C01909111
:1003E0007D010C9479008BE00E94B1008FEC97E0C6
:1003F0000197F1F700C000008CE00E94B1008093EB
:1004000080018FEC97E00197F1F700C0000080E0D9
:100410000E94B100809381018FEC97E00197F1F782
:1004200000C000008091810190E020918001382F70
:1004300030937B0120937A010E94790084E091E05F
:100440000E946D008091800190E00E94790084E01C
:1004500091E00E946D0080917A0190917B010C9453
:10046000790008950895089580910001880F4C99AE
:1004700009C08093000181E090910001933009F060
:1004800080E008958160F5CF0E9453000E94A6008D
:10049000579A5F9854985C9AC7E0D6E012E005E05E
:1004A00084E0F82E93E0E92EDD24D394E0919201CC
:1004B000E830F0F7F0E0EB54FA4F0C94E4028AE0F5
:1004C00091E00E946D000E94C40086E191E00E94CC
:1004D0006D000E943402882349F3D0929201E6CF46
:1004E00088E191E00E946D0086E191E00E946D003C
:1004F0000E9434028823D1F2E0929201D7CF85E2A4
:1005000091E00E946D000E94770186E191E00E94D7
:100510006D000E943402882349F2F0929201C6CF06
:1005200083E391E00E946D000E94B50186E191E0B5
:100530000E946D000E943402882309F4B7CF009313
:100540009201B4CF81E491E00E946D000E94F3011A
:1005500086E191E00E946D000E943402882309F434
:10056000A5CF10939201A2CF8FE491E00E946D007D
:1005700086E191E00E946D000E943402882309F414
:1005800095CFD093920192CF8EE591E00E946D00BD
:1005900086E191E00E946D000E943402882309F4F4
:1005A00085CFC093920182CF8EE691E00E946D00CC
:1005B00086E191E00E946D000E943402882309F4D4
:1005C00075CF1092920172CFEE0FFF1F0590F4913C
:1005D000E02D0994AEE0B0E0E0EFF2E00C948A0583
:1005E0000D891E8986E08C831A8309838FEF9FE72C
:1005F0009E838D83AE01475E5F4F6F89788DCE01FC
:1006000001960E940D032F813885020F131FF801F8
:1006100010822E96E4E00C94A605ABE0B0E0E3E196
:10062000F3E00C947C057C013B018A01FC011782FC
:100630001682838181FFB9C19AE0292ECE010196ED
:100640005C01F7019381F30193FD859193FF819103
:100650003F01882309F446C1853239F493FD859121
:1006600093FF81913F01853229F4B70190E00E9408
:10067000EE04E7CF912C412C512CFFE1F51538F019
:100680008B3209F188F4803201F1833221F157FC79
:100690003AC020ED280F2A3040F556FE1FC0929C2C
:1006A000200D1124922E06C08D3291F0803379F7FF
:1006B000689450F8F30193FD859193FF81913F0178
:1006C0008111DBCF20C0689451F8689452F8F2CFC2
:1006D000689453F8EFCF689454F8ECCF429C200D07
:1006E0001124422E689455F8E5CF8E3229F456FC39
:1006F000F9C0689456F8DECF8C3619F4689457F830
:10070000D9CF8836B9F2982F9F7D95549330C0F099
:100710008336A1F18337C1F1833509F05BC0F8015D
:10072000C190D1908F01692D70E056FC02C06FEF2F
:100730007FEFC6010E94D8044C01689457F80AC0A4
:100740000C5F1F4F2FE3298388248394912C65012C
:10075000E89457F853FC04C04814190409F018F53C
:10076000342C8114910431F5332009F46ACFB70198
:1007700080E290E00E94EE043A94F6CFF801808186
:1007800089830E5F1F4FE0CFF801C190D1908F0198
:10079000692D70E056FC02C06FEF7FEFC6010E942A
:1007A000E3044C01D5CFB70180E290E00E94EE0453
:1007B0004A94D2CFF60157FC859157FE81916F0183
:1007C000B70190E00E94EE0431103A94F1E08F1AE4
:1007D0009108C7CF843619F0893609F074C0F80142
:1007E00057FE6AC061917191819191918F01252D80
:1007F0002F76D22E97FF09C09095809570956195C0
:100800007F4F8F4F9F4F6894D7F82AE030E0A501C3
:100810000E941E05C82ECA188C2C5D2CD6FE0CC05A
:10082000E89450F8C91440F4D4FE05C0D2FC03C0CB
:10083000FD2DFE7E5F2E892C54FE8FC0FE01EC0D37
:10084000F11D8081803309F081C0252D297E522E33
:10085000852D8870382E53FC8FC050FE89C09C2C8B
:10086000841418F44C0C942C981854FE8BC0B701C7
:1008700080E390E00E94EE0452FE09C088E790E019
:1008800051FE02C088E590E0B7010E94EE04C91451
:1008900008F484C0CA94D12C9FEFC91AD90ACA0C93
:1008A000DB1CF60182916F01B70190E00E94EE041B
:1008B000AC14BD04B1F758CF61917191072E000CB3
:1008C000880B990B93CFD52CE894D4F82AE030E02C
:1008D000853739F1952D997FD92E8F3601F148F45E
:1008E0008835A9F0F701868197812B96E2E10C9477
:1008F0009805803749F08837A9F7D4FE02C068947C
:10090000D2F820E130E00DC06894D4F8F6CF54FE60
:1009100003C0E92FE660DE2E20E132E002C028E0CD
:1009200030E0F801D7FE0DC06191719181919191F4
:100930008F01A5010E941E05C82ECA18E894D7F899
:100940006BCF6191719190E080E0F2CF52FC02C0D8
:1009500083947ECF839483947BCF852D867809F40E
:1009600077CFF6CFB70180E290E00E94EE04839447
:100970008414C0F3312C79CF342C3818841408F443
:1009800074CFF8CF852D867809F481CF8BE251FEA4
:1009900080E257FC8DE2B70190E077CFB70180E3AA
:1009A00090E00E94EE049A9472CF8FEF9FEF9DCF5C
:1009B000FC010590615070400110D8F7809590952A
:1009C0008E0F9F1F0895FC0161507040019001102F
:1009D000D8F7809590958E0F9F1F08950F931F93C2
:1009E000CF93DF93182F092FEB018B8181FD09C075
:1009F0001FEF0FEF812F902FDF91CF911F910F915C
:100A0000089582FF14C02E813F818C819D8128171B
:100A100039073CF4E881F981CF01019699838883F5
:100A200010838E819F8101969F838E83E3CFE8851B
:100A3000F985812F0995892BA1F3DACFFA01AA272D
:100A4000283051F1203181F1E8946F936E7F6E5F11
:100A50007F4F8F4F9F4FAF4FB1E03ED0B4E03CD0BF
:100A6000670F781F891F9A1FA11D680F791F8A1FA2
:100A7000911DA11D6A0F711D811D911DA11D20D009
:100A800009F468943F912AE0269F11243019305DC3
:100A90003193DEF6CF010895462F4770405D4193B4
:100AA000B3E00FD0C9F7F6CF462F4F70405D4A3301
:100AB00018F0495D31FD4052419302D0A9F7EACFC9
:100AC000B4E0A6959795879577956795BA95C9F7F8
:100AD00000976105710508959B01AC010A2E0694EB
:100AE0005795479537952795BA95C9F7620F731FA4
:100AF000841F951FA01D08952F923F924F925F92E1
:100B00006F927F928F929F92AF92BF92CF92DF921D
:100B1000EF92FF920F931F93CF93DF93CDB7DEB782
:100B2000CA1BDB0B0FB6F894DEBF0FBECDBF099416
:100B30002A88398848885F846E847D848C849B846D
:100B4000AA84B984C884DF80EE80FD800C811B817B
:100B5000AA81B981CE0FD11D0FB6F894DEBF0FBEAA
:100B6000CDBFED010895F894FFCF5F027002B4028B
:0A0B70007F029002A202C402D40228
:100B7A00FF2564005E00202D2000616E616C6F67A6
:100B8A005261773A20000A006469676974616C529D
:100B9A0061773A200063616C6962726174655330EF
:100BAA003A200063616C69627261746553313A205C
:100BBA000063616C69627261746553323A20006342
:100BCA00616C696272617465416C6C3A20006361A0
:100BDA006C6962726174654175746F3A200064656C
:0A0BEA00636973696F6E3A20000022
:00000001FF
